{
  "abi": [
    {
      "inputs": [],
      "stateMutability": "nonpayable",
      "type": "constructor"
    },
    {
      "inputs": [
        {
          "internalType": "int256",
          "name": "errorCode",
          "type": "int256"
        }
      ],
      "name": "ActorError",
      "type": "error"
    },
    {
      "inputs": [],
      "name": "ActorNotFound",
      "type": "error"
    },
    {
      "inputs": [
        {
          "internalType": "uint256",
          "name": "epoch",
          "type": "uint256"
        }
      ],
      "name": "DealEpochAlreadyExists",
      "type": "error"
    },
    {
      "inputs": [],
      "name": "FailToCallActor",
      "type": "error"
    },
    {
      "inputs": [
        {
          "internalType": "uint64",
          "name": "",
          "type": "uint64"
        }
      ],
      "name": "InvalidCodec",
      "type": "error"
    },
    {
      "inputs": [],
      "name": "InvalidResponseLength",
      "type": "error"
    },
    {
      "inputs": [
        {
          "internalType": "uint256",
          "name": "balance",
          "type": "uint256"
        },
        {
          "internalType": "uint256",
          "name": "value",
          "type": "uint256"
        }
      ],
      "name": "NotEnoughBalance",
      "type": "error"
    },
    {
      "inputs": [
        {
          "internalType": "string",
          "name": "reason",
          "type": "string"
        }
      ],
      "name": "PubAlreadyExists",
      "type": "error"
    },
    {
      "inputs": [
        {
          "internalType": "string",
          "name": "reason",
          "type": "string"
        }
      ],
      "name": "PubDoesNotExist",
      "type": "error"
    },
    {
      "anonymous": false,
      "inputs": [
        {
          "indexed": true,
          "internalType": "uint256",
          "name": "dealId",
          "type": "uint256"
        },
        {
          "indexed": true,
          "internalType": "string",
          "name": "pub",
          "type": "string"
        },
        {
          "indexed": true,
          "internalType": "address",
          "name": "owner",
          "type": "address"
        }
      ],
      "name": "DealAdded",
      "type": "event"
    },
    {
      "anonymous": false,
      "inputs": [
        {
          "indexed": true,
          "internalType": "string",
          "name": "pub",
          "type": "string"
        },
        {
          "indexed": true,
          "internalType": "address",
          "name": "owner",
          "type": "address"
        }
      ],
      "name": "PubCreated",
      "type": "event"
    },
    {
      "anonymous": false,
      "inputs": [
        {
          "indexed": true,
          "internalType": "bytes32",
          "name": "role",
          "type": "bytes32"
        },
        {
          "indexed": true,
          "internalType": "bytes32",
          "name": "previousAdminRole",
          "type": "bytes32"
        },
        {
          "indexed": true,
          "internalType": "bytes32",
          "name": "newAdminRole",
          "type": "bytes32"
        }
      ],
      "name": "RoleAdminChanged",
      "type": "event"
    },
    {
      "anonymous": false,
      "inputs": [
        {
          "indexed": true,
          "internalType": "bytes32",
          "name": "role",
          "type": "bytes32"
        },
        {
          "indexed": true,
          "internalType": "address",
          "name": "account",
          "type": "address"
        },
        {
          "indexed": true,
          "internalType": "address",
          "name": "sender",
          "type": "address"
        }
      ],
      "name": "RoleGranted",
      "type": "event"
    },
    {
      "anonymous": false,
      "inputs": [
        {
          "indexed": true,
          "internalType": "bytes32",
          "name": "role",
          "type": "bytes32"
        },
        {
          "indexed": true,
          "internalType": "address",
          "name": "account",
          "type": "address"
        },
        {
          "indexed": true,
          "internalType": "address",
          "name": "sender",
          "type": "address"
        }
      ],
      "name": "RoleRevoked",
      "type": "event"
    },
    {
      "inputs": [],
      "name": "DEFAULT_ADMIN_ROLE",
      "outputs": [
        {
          "internalType": "bytes32",
          "name": "",
          "type": "bytes32"
        }
      ],
      "stateMutability": "view",
      "type": "function"
    },
    {
      "inputs": [],
      "name": "PUB_ADMIN_ROLE",
      "outputs": [
        {
          "internalType": "bytes32",
          "name": "",
          "type": "bytes32"
        }
      ],
      "stateMutability": "view",
      "type": "function"
    },
    {
      "inputs": [
        {
          "internalType": "string",
          "name": "pub",
          "type": "string"
        },
        {
          "components": [
            {
              "internalType": "uint64",
              "name": "id",
              "type": "uint64"
            },
            {
              "internalType": "string",
              "name": "selectorPath",
              "type": "string"
            }
          ],
          "internalType": "struct BasinStorage.DealInfo[]",
          "name": "deals",
          "type": "tuple[]"
        }
      ],
      "name": "addDeals",
      "outputs": [],
      "stateMutability": "nonpayable",
      "type": "function"
    },
    {
      "inputs": [
        {
          "internalType": "address",
          "name": "owner",
          "type": "address"
        },
        {
          "internalType": "string",
          "name": "pub",
          "type": "string"
        }
      ],
      "name": "createPub",
      "outputs": [],
      "stateMutability": "nonpayable",
      "type": "function"
    },
    {
      "inputs": [
        {
          "internalType": "uint64",
          "name": "dealID",
          "type": "uint64"
        }
      ],
      "name": "dealActivation",
      "outputs": [
        {
          "internalType": "int64",
          "name": "",
          "type": "int64"
        },
        {
          "internalType": "int64",
          "name": "",
          "type": "int64"
        }
      ],
      "stateMutability": "view",
      "type": "function"
    },
    {
      "inputs": [
        {
          "internalType": "uint64",
          "name": "dealID",
          "type": "uint64"
        }
      ],
      "name": "dealClient",
      "outputs": [
        {
          "internalType": "uint64",
          "name": "",
          "type": "uint64"
        }
      ],
      "stateMutability": "view",
      "type": "function"
    },
    {
      "inputs": [
        {
          "internalType": "uint64",
          "name": "dealID",
          "type": "uint64"
        }
      ],
      "name": "dealClientCollateral",
      "outputs": [
        {
          "components": [
            {
              "internalType": "bytes",
              "name": "val",
              "type": "bytes"
            },
            {
              "internalType": "bool",
              "name": "neg",
              "type": "bool"
            }
          ],
          "internalType": "struct CommonTypes.BigInt",
          "name": "",
          "type": "tuple"
        }
      ],
      "stateMutability": "view",
      "type": "function"
    },
    {
      "inputs": [
        {
          "internalType": "uint64",
          "name": "dealID",
          "type": "uint64"
        }
      ],
      "name": "dealLabel",
      "outputs": [
        {
          "internalType": "bytes",
          "name": "",
          "type": "bytes"
        },
        {
          "internalType": "bool",
          "name": "",
          "type": "bool"
        }
      ],
      "stateMutability": "view",
      "type": "function"
    },
    {
      "inputs": [
        {
          "internalType": "uint64",
          "name": "dealID",
          "type": "uint64"
        }
      ],
      "name": "dealProvider",
      "outputs": [
        {
          "internalType": "uint64",
          "name": "",
          "type": "uint64"
        }
      ],
      "stateMutability": "view",
      "type": "function"
    },
    {
      "inputs": [
        {
          "internalType": "uint64",
          "name": "dealID",
          "type": "uint64"
        }
      ],
      "name": "dealProviderCollateral",
      "outputs": [
        {
          "components": [
            {
              "internalType": "bytes",
              "name": "val",
              "type": "bytes"
            },
            {
              "internalType": "bool",
              "name": "neg",
              "type": "bool"
            }
          ],
          "internalType": "struct CommonTypes.BigInt",
          "name": "",
          "type": "tuple"
        }
      ],
      "stateMutability": "view",
      "type": "function"
    },
    {
      "inputs": [
        {
          "internalType": "uint64",
          "name": "dealID",
          "type": "uint64"
        }
      ],
      "name": "dealTerm",
      "outputs": [
        {
          "internalType": "int64",
          "name": "",
          "type": "int64"
        },
        {
          "internalType": "int64",
          "name": "",
          "type": "int64"
        }
      ],
      "stateMutability": "view",
      "type": "function"
    },
    {
      "inputs": [
        {
          "internalType": "uint64",
          "name": "dealID",
          "type": "uint64"
        }
      ],
      "name": "dealTotalPrice",
      "outputs": [
        {
          "components": [
            {
              "internalType": "bytes",
              "name": "val",
              "type": "bytes"
            },
            {
              "internalType": "bool",
              "name": "neg",
              "type": "bool"
            }
          ],
          "internalType": "struct CommonTypes.BigInt",
          "name": "",
          "type": "tuple"
        }
      ],
      "stateMutability": "view",
      "type": "function"
    },
    {
      "inputs": [
        {
          "internalType": "uint64",
          "name": "dealID",
          "type": "uint64"
        }
      ],
      "name": "dealVerified",
      "outputs": [
        {
          "internalType": "bool",
          "name": "",
          "type": "bool"
        }
      ],
      "stateMutability": "view",
      "type": "function"
    },
    {
      "inputs": [
        {
          "internalType": "bytes32",
          "name": "role",
          "type": "bytes32"
        }
      ],
      "name": "getRoleAdmin",
      "outputs": [
        {
          "internalType": "bytes32",
          "name": "",
          "type": "bytes32"
        }
      ],
      "stateMutability": "view",
      "type": "function"
    },
    {
      "inputs": [
        {
          "internalType": "bytes32",
          "name": "role",
          "type": "bytes32"
        },
        {
          "internalType": "address",
          "name": "account",
          "type": "address"
        }
      ],
      "name": "grantRole",
      "outputs": [],
      "stateMutability": "nonpayable",
      "type": "function"
    },
    {
      "inputs": [
        {
          "internalType": "bytes32",
          "name": "role",
          "type": "bytes32"
        },
        {
          "internalType": "address",
          "name": "account",
          "type": "address"
        }
      ],
      "name": "hasRole",
      "outputs": [
        {
          "internalType": "bool",
          "name": "",
          "type": "bool"
        }
      ],
      "stateMutability": "view",
      "type": "function"
    },
    {
      "inputs": [
        {
          "internalType": "string",
          "name": "pub",
          "type": "string"
        },
        {
          "internalType": "uint256",
          "name": "n",
          "type": "uint256"
        }
      ],
      "name": "latestNDeals",
      "outputs": [
        {
          "components": [
            {
              "internalType": "uint64",
              "name": "id",
              "type": "uint64"
            },
            {
              "internalType": "string",
              "name": "selectorPath",
              "type": "string"
            }
          ],
          "internalType": "struct BasinStorage.DealInfo[]",
          "name": "",
          "type": "tuple[]"
        }
      ],
      "stateMutability": "view",
      "type": "function"
    },
    {
      "inputs": [
        {
          "internalType": "string",
          "name": "pub",
          "type": "string"
        },
        {
          "internalType": "uint256",
          "name": "offset",
          "type": "uint256"
        },
        {
          "internalType": "uint256",
          "name": "limit",
          "type": "uint256"
        }
      ],
      "name": "paginatedDeals",
      "outputs": [
        {
          "components": [
            {
              "internalType": "uint64",
              "name": "id",
              "type": "uint64"
            },
            {
              "internalType": "string",
              "name": "selectorPath",
              "type": "string"
            }
          ],
          "internalType": "struct BasinStorage.DealInfo[]",
          "name": "",
          "type": "tuple[]"
        }
      ],
      "stateMutability": "view",
      "type": "function"
    },
    {
      "inputs": [
        {
          "internalType": "address",
          "name": "owner",
          "type": "address"
        }
      ],
      "name": "pubsOfOwner",
      "outputs": [
        {
          "internalType": "string[]",
          "name": "",
          "type": "string[]"
        }
      ],
      "stateMutability": "view",
      "type": "function"
    },
    {
      "inputs": [
        {
          "internalType": "bytes32",
          "name": "role",
          "type": "bytes32"
        },
        {
          "internalType": "address",
          "name": "account",
          "type": "address"
        }
      ],
      "name": "renounceRole",
      "outputs": [],
      "stateMutability": "nonpayable",
      "type": "function"
    },
    {
      "inputs": [
        {
          "internalType": "bytes32",
          "name": "role",
          "type": "bytes32"
        },
        {
          "internalType": "address",
          "name": "account",
          "type": "address"
        }
      ],
      "name": "revokeRole",
      "outputs": [],
      "stateMutability": "nonpayable",
      "type": "function"
    },
    {
      "inputs": [
        {
          "internalType": "bytes4",
          "name": "interfaceId",
          "type": "bytes4"
        }
      ],
      "name": "supportsInterface",
      "outputs": [
        {
          "internalType": "bool",
          "name": "",
          "type": "bool"
        }
      ],
      "stateMutability": "view",
      "type": "function"
    }
  ],
  "bytecode": {
    "object": "0x60806040523480156200001157600080fd5b506200001f60003362000025565b620000c6565b6000828152602081815260408083206001600160a01b038516845290915290205460ff16620000c2576000828152602081815260408083206001600160a01b03851684529091529020805460ff19166001179055620000813390565b6001600160a01b0316816001600160a01b0316837f2f8788117e7eff1d82e926ec794901d17c78024a50270940304540a733656f0d60405160405180910390a45b5050565b612e3480620000d66000396000f3fe608060405234801561001057600080fd5b50600436106101425760003560e01c806359b64c5d116100b857806391d148541161007c57806391d14854146103275780639f29370b1461033a578063a217fddf1461034d578063a4de7e4914610355578063d06f680214610368578063d547741f1461037b57600080fd5b806359b64c5d1461028d5780636f0a43c7146102ad578063822ba40b146102c057806387a41b81146102e757806389ec0b931461031457600080fd5b80632f2ff15d1161010a5780632f2ff15d1461020c57806336568abe146102215780633c7e5999146102345780633ff421e914610254578063484d5a3a1461026757806352b62b3e1461027a57600080fd5b806301ffc9a71461014757806306a09dea1461016f578063121e620e1461019a578063248a9ca3146101bb57806326294a77146101ec575b600080fd5b61015a610155366004612361565b61038e565b60405190151581526020015b60405180910390f35b61018261017d3660046123a0565b6103c5565b6040516001600160401b039091168152602001610166565b6101ad6101a83660046123a0565b6103d0565b60405161016692919061240d565b6101de6101c9366004612431565b60009081526020819052604090206001015490565b604051908152602001610166565b6101ff6101fa366004612466565b6103f1565b6040516101669190612481565b61021f61021a3660046124e3565b6104e0565b005b61021f61022f3660046124e3565b61050a565b6102476102423660046123a0565b61058d565b604051610166919061250f565b61015a6102623660046123a0565b6105ab565b6102476102753660046123a0565b6105b6565b61021f610288366004612584565b6105d4565b6102a061029b3660046125d6565b61070d565b6040516101669190612626565b6102a06102bb3660046126a3565b61075b565b6101de7fafda658ee731b8f86292e3b52a311534cd93642b12a698012439316e0c3a099581565b6102fa6102f53660046123a0565b6107a8565b60408051600793840b81529190920b602082015201610166565b6102476103223660046123a0565b6107b6565b61015a6103353660046124e3565b6107d4565b6102fa6103483660046123a0565b6107fd565b6101de600081565b61021f6103633660046126ee565b61080b565b6101826103763660046123a0565b6109e8565b61021f6103893660046124e3565b6109f3565b60006001600160e01b03198216637965db0b60e01b14806103bf57506301ffc9a760e01b6001600160e01b03198316145b92915050565b60006103bf82610a18565b60606000806103de84610a56565b8051602090910151909590945092505050565b6001600160a01b0381166000908152600260209081526040808320805482518185028101850190935280835260609492939192909184015b828210156104d557838290600052602060002001805461044890612787565b80601f016020809104026020016040519081016040528092919081815260200182805461047490612787565b80156104c15780601f10610496576101008083540402835291602001916104c1565b820191906000526020600020905b8154815290600101906020018083116104a457829003601f168201915b505050505081526020019060010190610429565b505050509050919050565b6000828152602081905260409020600101546104fb81610aa0565b6105058383610aad565b505050565b6001600160a01b038116331461057f5760405162461bcd60e51b815260206004820152602f60248201527f416363657373436f6e74726f6c3a2063616e206f6e6c792072656e6f756e636560448201526e103937b632b9903337b91039b2b63360891b60648201526084015b60405180910390fd5b6105898282610b31565b5050565b6040805180820190915260608152600060208201526103bf82610b96565b60006103bf82610be0565b6040805180820190915260608152600060208201526103bf82610c16565b7fafda658ee731b8f86292e3b52a311534cd93642b12a698012439316e0c3a09956105fe81610aa0565b60006001600160a01b03166001848460405161061b9291906127c1565b908152604051908190036020019020546001600160a01b031614610656578282604051635c78f6ed60e11b81526004016105769291906127d1565b83600184846040516106699291906127c1565b908152604080516020928190038301902080546001600160a01b0319166001600160a01b0394851617905591861660009081526002825291822080546001810182559083529120016106bc838583612864565b50836001600160a01b031683836040516106d79291906127c1565b604051908190038120907ff8debc2f1745eba86909890f2dc061624705c74329348829e04aba43c015b9a290600090a350505050565b60606000600386866040516107239291906127c1565b90815260200160405180910390205490508083116107415782610743565b805b925061075186868686610c55565b9695505050505050565b60606000600385856040516107719291906127c1565b908152602001604051809103902054905080831161078f5782610791565b805b925061079f85854386610c55565b95945050505050565b60008060006103de84610e84565b6040805180820190915260608152600060208201526103bf82610ecd565b6000918252602082815260408084206001600160a01b0393909316845291905290205460ff1690565b60008060006103de84610f0c565b7fafda658ee731b8f86292e3b52a311534cd93642b12a698012439316e0c3a099561083581610aa0565b600043905060006001878760405161084e9291906127c1565b908152604051908190036020019020546001600160a01b031690508061088b5786866040516315e6e0eb60e21b81526004016105769291906127d1565b60005b848110156109de57600488886040516108a89291906127c1565b908152602001604051809103902060008481526020019081526020016000208686838181106108d9576108d9612924565b90506020028101906108eb919061293a565b81546001810183556000928352602090922090916002020161090d828261295a565b5050600388886040516109219291906127c1565b908152604051908190036020019020805490600061093e83612a87565b9190505550816001600160a01b0316888860405161095d9291906127c1565b604051809103902087878481811061097757610977612924565b9050602002810190610989919061293a565b6109979060208101906123a0565b6001600160401b03167f204834f22022f11eeb78462cfca42c0249cae717b04eba08c0ba32426d750d7060405160405180910390a4806109d681612a87565b91505061088e565b5050505050505050565b60006103bf82610f4a565b600082815260208190526040902060010154610a0e81610aa0565b6105058383610b31565b600080610a2d836001600160401b0316610f75565b90506000610a4360056307a1f051605185610fad565b9050610a4e81610fd2565b949350505050565b6040805180820190915260608152600060208201526000610a7f836001600160401b0316610f75565b90506000610a9560056302c37386605185610fad565b9050610a4e81610fe9565b610aaa8133611020565b50565b610ab782826107d4565b610589576000828152602081815260408083206001600160a01b03851684529091529020805460ff19166001179055610aed3390565b6001600160a01b0316816001600160a01b0316837f2f8788117e7eff1d82e926ec794901d17c78024a50270940304540a733656f0d60405160405180910390a45050565b610b3b82826107d4565b15610589576000828152602081815260408083206001600160a01b0385168085529252808320805460ff1916905551339285917ff6391f5c32d9c69d2a47ea670b442974b53935d1edc7fd64eb21e047a839171b9190a45050565b6040805180820190915260608152600060208201526000610bbf836001600160401b0316610f75565b90506000610bd5600563b2059c49605185610fad565b9050610a4e81611079565b600080610bf5836001600160401b0316610f75565b90506000610c0b6005639c9ac819605185610fad565b9050610a4e816110dd565b6040805180820190915260608152600060208201526000610c3f836001600160401b0316610f75565b90506000610bd5600563ff88e83c605185610fad565b6060600080836001600160401b03811115610c7257610c72612800565b604051908082528060200260200182016040528015610cb857816020015b604080518082019091526000815260606020820152815260200190600190039081610c905790505b509050845b84831015610e7757600060048989604051610cd99291906127c1565b9081526040805191829003602090810183206000868152908252828120805480840286018401909452838552929184015b82821015610de3576000848152602090819020604080518082019091526002850290910180546001600160401b031682526001810180549293919291840191610d5290612787565b80601f0160208091040260200160405190810160405280929190818152602001828054610d7e90612787565b8015610dcb5780601f10610da057610100808354040283529160200191610dcb565b820191906000526020600020905b815481529060010190602001808311610dae57829003601f168201915b50505050508152505081526020019060010190610d0a565b50505050905060005b8151811015610e555786851015610e5557818181518110610e0f57610e0f612924565b6020026020010151848681518110610e2957610e29612924565b60200260200101819052508480610e3f90612a87565b9550508080610e4d90612a87565b915050610dec565b5081600003610e645750610e77565b81610e6e81612aa0565b92505050610cbd565b5090815295945050505050565b60408051808201909152600080825260208201526000610eac836001600160401b0316610f75565b90506000610ec260056309c30b20605185610fad565b9050610a4e816110eb565b6040805180820190915260608152600060208201526000610ef6836001600160401b0316610f75565b90506000610bd56005630bf46c57605185610fad565b60408051808201909152600080825260208201526000610f34836001600160401b0316610f75565b90506000610ec26005639904f2ff605185610fad565b600080610f5f836001600160401b0316610f75565b90506000610a4360056337bc36da605185610fad565b60606000610f8b836001600160401b031661114f565b90506000610f988261119d565b9050610fa481856111be565b610a4e816111ca565b606061121580610fc7878787876000600163ffffffff8816565b979650505050505050565b60008080610fe084826112ef565b50949350505050565b604080518082019091526060815260006020820152604080518082019091526060815260006020820181905290610fe0848361137c565b61102a82826107d4565b610589576110378161152a565b61104283602061153c565b604051602001611053929190612ab7565b60408051601f198184030181529082905262461bcd60e51b825261057691600401612b2c565b6040805180820190915260608082526000602083018190528351156110b7576110a284826116de565b81519193509150156110b757610a4e82611883565b505060408051600081830181815260608301909352918152602081019190915292915050565b60008080610fe084826119df565b604080518082019091526000808252602082015260008061110c8482611a7a565b925090506002811461112057611120612b3f565b61112a8483611aed565b60079190910b8452915061113e8483611aed565b5060070b6020840152509092915050565b60006017821161116157506001919050565b60ff821161117157506002919050565b61ffff821161118257506003919050565b63ffffffff821161119557506005919050565b506009919050565b6111a561232c565b80516111b19083611b07565b5060006020820152919050565b61058982600083611b7e565b6060816020015160001461120f5760405162461bcd60e51b815260206004820152600c60248201526b24b73b30b634b21021a127a960a11b6044820152606401610576565b50515190565b60606112286005607f60991b0184611c9d565b6000806005607f60991b01888686611241576000611244565b60015b8a8a8e60405160200161125c96959493929190612b55565b60408051601f198184030181529082905261127691612ba4565b600060405180830381855af49150503d80600081146112b1576040519150601f19603f3d011682016040523d82523d6000602084013e6112b6565b606091505b5091509150816112d957604051638a7db5bf60e01b815260040160405180910390fd5b6112e281611ceb565b9998505050505050505050565b6000806000806112ff8686611dce565b96509092506001600160401b0316905060ff82161561136e5760405162461bcd60e51b815260206004820152602560248201527f696e76616c6964206d616a20286578706563746564204d616a556e7369676e6560448201526464496e742960d81b6064820152608401610576565b9250839150505b9250929050565b60408051808201909152606081526000602082015260008060006113a08686611dce565b96509092506001600160401b0316905060ff8216600214806113c5575060ff82166003145b61142f5760405162461bcd60e51b815260206004820152603560248201527f696e76616c6964206d616a20286578706563746564204d616a42797465537472604482015274696e67206f72204d616a54657874537472696e672960581b6064820152608401610576565b600061143b8287612bb6565b90506000826001600160401b0381111561145757611457612800565b6040519080825280601f01601f191660200182016040528015611481576020820181803683370190505b5090506000875b838110156114f6578981815181106114a2576114a2612924565b602001015160f81c60f81b8383815181106114bf576114bf612924565b60200101906001600160f81b031916908160001a905350816114e081612a87565b92505080806114ee90612a87565b915050611488565b506040805180820190915282815260ff8616600314602082015261151a858a612bb6565b9650965050505050509250929050565b60606103bf6001600160a01b03831660145b6060600061154b836002612bc9565b611556906002612bb6565b6001600160401b0381111561156d5761156d612800565b6040519080825280601f01601f191660200182016040528015611597576020820181803683370190505b509050600360fc1b816000815181106115b2576115b2612924565b60200101906001600160f81b031916908160001a905350600f60fb1b816001815181106115e1576115e1612924565b60200101906001600160f81b031916908160001a9053506000611605846002612bc9565b611610906001612bb6565b90505b6001811115611688576f181899199a1a9b1b9c1cb0b131b232b360811b85600f166010811061164457611644612924565b1a60f81b82828151811061165a5761165a612924565b60200101906001600160f81b031916908160001a90535060049490941c9361168181612aa0565b9050611613565b5083156116d75760405162461bcd60e51b815260206004820181905260248201527f537472696e67733a20686578206c656e67746820696e73756666696369656e746044820152606401610576565b9392505050565b606060008060006116ef8686611dce565b96509092506001600160401b0316905060ff821660061480611714575060ff82166002145b6117775760405162461bcd60e51b815260206004820152602e60248201527f696e76616c6964206d616a20286578706563746564204d616a546167206f722060448201526d4d616a42797465537472696e672960901b6064820152608401610576565b60051960ff8316016117b05761178d8686611dce565b96509092506001600160401b0316905060ff82166002146117b0576117b0612b3f565b60006117bc8287612bb6565b90506000826001600160401b038111156117d8576117d8612800565b6040519080825280601f01601f191660200182016040528015611802576020820181803683370190505b5090506000875b838110156118775789818151811061182357611823612924565b602001015160f81c60f81b83838151811061184057611840612924565b60200101906001600160f81b031916908160001a9053508161186181612a87565b925050808061186f90612a87565b915050611809565b508161151a858a612bb6565b60408051808201909152606081526000602082015281516000036118cc575050604080516080810182526001918101918252600060608201819052918152602081019190915290565b6000600183516118dc9190612be0565b6001600160401b038111156118f3576118f3612800565b6040519080825280601f01601f19166020018201604052801561191d576020820181803683370190505b50905060008360008151811061193557611935612924565b01602001516001600160f81b031916600160f81b03611952575060015b60015b84518110156119c45784818151811061197057611970612924565b01602001516001600160f81b0319168361198b600184612be0565b8151811061199b5761199b612924565b60200101906001600160f81b031916908160001a905350806119bc81612a87565b915050611955565b50604080518082019091529182521515602082015292915050565b6000806000806119ef8686611dce565b96509092506001600160401b0316905060ff8216600714611a525760405162461bcd60e51b815260206004820152601f60248201527f696e76616c6964206d616a20286578706563746564204d616a4f7468657229006044820152606401610576565b6015811480611a615750601481145b611a6d57611a6d612b3f565b6014141595939450505050565b600080600080611a8a8686611dce565b96509092506001600160401b0316905060ff821660041461136e5760405162461bcd60e51b815260206004820152601f60248201527f696e76616c6964206d616a20286578706563746564204d616a417272617929006044820152606401610576565b60008080611afb8585611fa8565b90969095509350505050565b604080518082019091526060815260006020820152611b27602083612bf3565b15611b4f57611b37602083612bf3565b611b42906020612be0565b611b4c9083612bb6565b91505b602080840183905260405180855260008152908184010181811015611b7357600080fd5b604052509192915050565b6017816001600160401b031611611baa578251611ba49060e0600585901b168317612045565b50505050565b60ff816001600160401b031611611bea578251611bd2906018611fe0600586901b1617612045565b508251611ba4906001600160401b03831660016120ae565b61ffff816001600160401b031611611c2b578251611c13906019611fe0600586901b1617612045565b508251611ba4906001600160401b03831660026120ae565b63ffffffff816001600160401b031611611c6e578251611c5690601a611fe0600586901b1617612045565b508251611ba4906001600160401b03831660046120ae565b8251611c8590601b611fe0600586901b1617612045565b508251611ba4906001600160401b03831660086120ae565b4781811015611cc957604051634787a10360e11b81526004810182905260248101839052604401610576565b823f151580611ba45760405163064d954b60e41b815260040160405180910390fd5b6060600080600084806020019051810190611d069190612c15565b919450925090506001600160401b038216611d4057805115611d3b57604051630e74990760e01b815260040160405180910390fd5b611dac565b6001600160401b03821660511480611d6157506001600160401b0382166071145b15611d88578051600003611d3b57604051630e74990760e01b815260040160405180910390fd5b60405163f1f6bced60e01b81526001600160401b0383166004820152602401610576565b8215610a4e5760405163d4bb667160e01b815260048101849052602401610576565b600080600080611dde8686612133565b9050611deb600186612bb6565b94506007600582901c16601f8216601c8110611e575760405162461bcd60e51b815260206004820152602560248201527f63616e6e6f742068616e646c6520686561646572732077697468206578747261604482015264203e20323760d81b6064820152608401610576565b60188160ff161015611e755790945060ff169250849150611fa19050565b8060ff16601803611ef1576000611e8c8989612133565b9050611e99600189612bb6565b975060188160ff161015611ede5760405162461bcd60e51b815260206004820152600c60248201526b34b73b30b634b21031b137b960a11b6044820152606401610576565b9195505060ff169250849150611fa19050565b8060ff16601903611f2b576000611f088989612182565b9050611f15600289612bb6565b97509195505061ffff169250849150611fa19050565b8060ff16601a03611f67576000611f4289896121bb565b9050611f4f600489612bb6565b97509195505063ffffffff169250849150611fa19050565b8060ff16601b14611f7a57611f7a612b3f565b6000611f8689896121f4565b9050611f93600889612bb6565b975091955090935085925050505b9250925092565b600080600080611fb88686611dce565b96509092506001600160401b0316905060ff821660011480611fdb575060ff8216155b61136e5760405162461bcd60e51b815260206004820152603560248201527f696e76616c6964206d616a20286578706563746564204d616a5369676e6564496044820152746e74206f72204d616a556e7369676e6564496e742960581b6064820152608401610576565b604080518082019091526060815260006020820152825151600061206a826001612bb6565b90508460200151821061208b5761208b85612086836002612bc9565b61222d565b84516020838201018581535080518211156120a4578181525b5093949350505050565b60408051808201909152606081526000602082015283515160006120d28285612bb6565b905085602001518111156120ef576120ef86612086836002612bc9565b600060016120ff86610100612dc4565b6121099190612be0565b90508651828101878319825116178152508051831115612127578281525b50959695505050505050565b6000612140826001612bb6565b835110156121605760405162461bcd60e51b815260040161057690612dd0565b82828151811061217257612172612924565b016020015160f81c905092915050565b600061218f826002612bb6565b835110156121af5760405162461bcd60e51b815260040161057690612dd0565b50016020015160f01c90565b60006121c8826004612bb6565b835110156121e85760405162461bcd60e51b815260040161057690612dd0565b50016020015160e01c90565b6000612201826008612bb6565b835110156122215760405162461bcd60e51b815260040161057690612dd0565b50016020015160c01c90565b81516122398383611b07565b50611ba483826040805180820190915260608152600060208201526116d783838451604080518082019091526060815260006020820152825182111561227e57600080fd5b835151600061228d8483612bb6565b905085602001518111156122aa576122aa86612086836002612bc9565b8551805183820160200191600091808511156122c4578482525b505050602086015b6020861061230457805182526122e3602083612bb6565b91506122f0602082612bb6565b90506122fd602087612be0565b95506122cc565b51815160001960208890036101000a0190811690199190911617905250849150509392505050565b6040518060400160405280612354604051806040016040528060608152602001600081525090565b8152602001600081525090565b60006020828403121561237357600080fd5b81356001600160e01b0319811681146116d757600080fd5b6001600160401b0381168114610aaa57600080fd5b6000602082840312156123b257600080fd5b81356116d78161238b565b60005b838110156123d85781810151838201526020016123c0565b50506000910152565b600081518084526123f98160208601602086016123bd565b601f01601f19169290920160200192915050565b60408152600061242060408301856123e1565b905082151560208301529392505050565b60006020828403121561244357600080fd5b5035919050565b80356001600160a01b038116811461246157600080fd5b919050565b60006020828403121561247857600080fd5b6116d78261244a565b6000602080830181845280855180835260408601915060408160051b870101925083870160005b828110156124d657603f198886030184526124c48583516123e1565b945092850192908501906001016124a8565b5092979650505050505050565b600080604083850312156124f657600080fd5b823591506125066020840161244a565b90509250929050565b60208152600082516040602084015261252b60608401826123e1565b90506020840151151560408401528091505092915050565b60008083601f84011261255557600080fd5b5081356001600160401b0381111561256c57600080fd5b60208301915083602082850101111561137557600080fd5b60008060006040848603121561259957600080fd5b6125a28461244a565b925060208401356001600160401b038111156125bd57600080fd5b6125c986828701612543565b9497909650939450505050565b600080600080606085870312156125ec57600080fd5b84356001600160401b0381111561260257600080fd5b61260e87828801612543565b90989097506020870135966040013595509350505050565b60006020808301818452808551808352604092508286019150828160051b87010184880160005b8381101561269557888303603f19018552815180516001600160401b03168452870151878401879052612682878501826123e1565b958801959350509086019060010161264d565b509098975050505050505050565b6000806000604084860312156126b857600080fd5b83356001600160401b038111156126ce57600080fd5b6126da86828701612543565b909790965060209590950135949350505050565b6000806000806040858703121561270457600080fd5b84356001600160401b038082111561271b57600080fd5b61272788838901612543565b9096509450602087013591508082111561274057600080fd5b818701915087601f83011261275457600080fd5b81358181111561276357600080fd5b8860208260051b850101111561277857600080fd5b95989497505060200194505050565b600181811c9082168061279b57607f821691505b6020821081036127bb57634e487b7160e01b600052602260045260246000fd5b50919050565b8183823760009101908152919050565b60208152816020820152818360408301376000818301604090810191909152601f909201601f19160101919050565b634e487b7160e01b600052604160045260246000fd5b601f82111561050557600081815260208120601f850160051c8101602086101561283d5750805b601f850160051c820191505b8181101561285c57828155600101612849565b505050505050565b6001600160401b0383111561287b5761287b612800565b61288f836128898354612787565b83612816565b6000601f8411600181146128c357600085156128ab5750838201355b600019600387901b1c1916600186901b17835561291d565b600083815260209020601f19861690835b828110156128f457868501358255602094850194600190920191016128d4565b50868210156129115760001960f88860031b161c19848701351681555b505060018560011b0183555b5050505050565b634e487b7160e01b600052603260045260246000fd5b60008235603e1983360301811261295057600080fd5b9190910192915050565b81356129658161238b565b815467ffffffffffffffff19166001600160401b0391821617825560019081830160208581013536879003601e1901811261299f57600080fd5b86018035848111156129b057600080fd5b80360383830113156129c157600080fd5b6129d5816129cf8654612787565b86612816565b60009450601f811160018114612a0d57600082156129f557508286018401355b600019600384901b1c1916600183901b178555612a66565b600085815260209020601f19831690875b82811015612a3d57858901870135825597860197908901908601612a1e565b5083821015612a5c5760001960f88560031b161c198689870101351681555b50508682881b0185555b505050505050505050565b634e487b7160e01b600052601160045260246000fd5b600060018201612a9957612a99612a71565b5060010190565b600081612aaf57612aaf612a71565b506000190190565b7f416363657373436f6e74726f6c3a206163636f756e7420000000000000000000815260008351612aef8160178501602088016123bd565b7001034b99036b4b9b9b4b733903937b6329607d1b6017918401918201528351612b208160288401602088016123bd565b01602801949350505050565b6020815260006116d760208301846123e1565b634e487b7160e01b600052600160045260246000fd5b60006001600160401b0380891683528760208401528087166040840152808616606084015260c06080840152612b8e60c08401866123e1565b915080841660a084015250979650505050505050565b600082516129508184602087016123bd565b808201808211156103bf576103bf612a71565b80820281158282048414176103bf576103bf612a71565b818103818111156103bf576103bf612a71565b600082612c1057634e487b7160e01b600052601260045260246000fd5b500690565b600080600060608486031215612c2a57600080fd5b835192506020840151612c3c8161238b565b60408501519092506001600160401b0380821115612c5957600080fd5b818601915086601f830112612c6d57600080fd5b815181811115612c7f57612c7f612800565b604051601f8201601f19908116603f01168101908382118183101715612ca757612ca7612800565b81604052828152896020848701011115612cc057600080fd5b612cd18360208301602088016123bd565b80955050505050509250925092565b600181815b80851115612d1b578160001904821115612d0157612d01612a71565b80851615612d0e57918102915b93841c9390800290612ce5565b509250929050565b600082612d32575060016103bf565b81612d3f575060006103bf565b8160018114612d555760028114612d5f57612d7b565b60019150506103bf565b60ff841115612d7057612d70612a71565b50506001821b6103bf565b5060208310610133831016604e8410600b8410161715612d9e575081810a6103bf565b612da88383612ce0565b8060001904821115612dbc57612dbc612a71565b029392505050565b60006116d78383612d23565b602080825260149082015273736c6963696e67206f7574206f662072616e676560601b60408201526060019056fea264697066735822122088e73cba35b7a8adb4e9047cb08ae6a1fcad3e26be71ba846913ead422ac05eb64736f6c63430008150033",
    "linkReferences": {}
  },
  "methodIdentifiers": {
    "DEFAULT_ADMIN_ROLE()": "a217fddf",
    "PUB_ADMIN_ROLE()": "822ba40b",
    "addDeals(string,(uint64,string)[])": "a4de7e49",
    "createPub(address,string)": "52b62b3e",
    "dealActivation(uint64)": "9f29370b",
    "dealClient(uint64)": "06a09dea",
    "dealClientCollateral(uint64)": "89ec0b93",
    "dealLabel(uint64)": "121e620e",
    "dealProvider(uint64)": "d06f6802",
    "dealProviderCollateral(uint64)": "3c7e5999",
    "dealTerm(uint64)": "87a41b81",
    "dealTotalPrice(uint64)": "484d5a3a",
    "dealVerified(uint64)": "3ff421e9",
    "getRoleAdmin(bytes32)": "248a9ca3",
    "grantRole(bytes32,address)": "2f2ff15d",
    "hasRole(bytes32,address)": "91d14854",
    "latestNDeals(string,uint256)": "6f0a43c7",
    "paginatedDeals(string,uint256,uint256)": "59b64c5d",
    "pubsOfOwner(address)": "26294a77",
    "renounceRole(bytes32,address)": "36568abe",
    "revokeRole(bytes32,address)": "d547741f",
    "supportsInterface(bytes4)": "01ffc9a7"
  },
  "id": 43
}