{
  "abi": [
    {
      "inputs": [],
      "stateMutability": "nonpayable",
      "type": "constructor"
    },
    {
      "inputs": [
        {
          "internalType": "int256",
          "name": "errorCode",
          "type": "int256"
        }
      ],
      "name": "ActorError",
      "type": "error"
    },
    {
      "inputs": [],
      "name": "ActorNotFound",
      "type": "error"
    },
    {
      "inputs": [
        {
          "internalType": "uint256",
          "name": "epoch",
          "type": "uint256"
        }
      ],
      "name": "DealEpochAlreadyExists",
      "type": "error"
    },
    {
      "inputs": [],
      "name": "FailToCallActor",
      "type": "error"
    },
    {
      "inputs": [
        {
          "internalType": "uint64",
          "name": "",
          "type": "uint64"
        }
      ],
      "name": "InvalidCodec",
      "type": "error"
    },
    {
      "inputs": [],
      "name": "InvalidResponseLength",
      "type": "error"
    },
    {
      "inputs": [
        {
          "internalType": "uint256",
          "name": "balance",
          "type": "uint256"
        },
        {
          "internalType": "uint256",
          "name": "value",
          "type": "uint256"
        }
      ],
      "name": "NotEnoughBalance",
      "type": "error"
    },
    {
      "inputs": [
        {
          "internalType": "string",
          "name": "reason",
          "type": "string"
        }
      ],
      "name": "PubAlreadyExists",
      "type": "error"
    },
    {
      "inputs": [
        {
          "internalType": "string",
          "name": "reason",
          "type": "string"
        }
      ],
      "name": "PubDoesNotExist",
      "type": "error"
    },
    {
      "anonymous": false,
      "inputs": [
        {
          "indexed": true,
          "internalType": "uint256",
          "name": "dealId",
          "type": "uint256"
        },
        {
          "indexed": true,
          "internalType": "string",
          "name": "pub",
          "type": "string"
        },
        {
          "indexed": true,
          "internalType": "address",
          "name": "owner",
          "type": "address"
        },
        {
          "indexed": false,
          "internalType": "string",
          "name": "cid",
          "type": "string"
        }
      ],
      "name": "DealAdded",
      "type": "event"
    },
    {
      "anonymous": false,
      "inputs": [
        {
          "indexed": true,
          "internalType": "string",
          "name": "pub",
          "type": "string"
        },
        {
          "indexed": true,
          "internalType": "address",
          "name": "owner",
          "type": "address"
        }
      ],
      "name": "PubCreated",
      "type": "event"
    },
    {
      "anonymous": false,
      "inputs": [
        {
          "indexed": true,
          "internalType": "bytes32",
          "name": "role",
          "type": "bytes32"
        },
        {
          "indexed": true,
          "internalType": "bytes32",
          "name": "previousAdminRole",
          "type": "bytes32"
        },
        {
          "indexed": true,
          "internalType": "bytes32",
          "name": "newAdminRole",
          "type": "bytes32"
        }
      ],
      "name": "RoleAdminChanged",
      "type": "event"
    },
    {
      "anonymous": false,
      "inputs": [
        {
          "indexed": true,
          "internalType": "bytes32",
          "name": "role",
          "type": "bytes32"
        },
        {
          "indexed": true,
          "internalType": "address",
          "name": "account",
          "type": "address"
        },
        {
          "indexed": true,
          "internalType": "address",
          "name": "sender",
          "type": "address"
        }
      ],
      "name": "RoleGranted",
      "type": "event"
    },
    {
      "anonymous": false,
      "inputs": [
        {
          "indexed": true,
          "internalType": "bytes32",
          "name": "role",
          "type": "bytes32"
        },
        {
          "indexed": true,
          "internalType": "address",
          "name": "account",
          "type": "address"
        },
        {
          "indexed": true,
          "internalType": "address",
          "name": "sender",
          "type": "address"
        }
      ],
      "name": "RoleRevoked",
      "type": "event"
    },
    {
      "inputs": [],
      "name": "DEFAULT_ADMIN_ROLE",
      "outputs": [
        {
          "internalType": "bytes32",
          "name": "",
          "type": "bytes32"
        }
      ],
      "stateMutability": "view",
      "type": "function"
    },
    {
      "inputs": [],
      "name": "PUB_ADMIN_ROLE",
      "outputs": [
        {
          "internalType": "bytes32",
          "name": "",
          "type": "bytes32"
        }
      ],
      "stateMutability": "view",
      "type": "function"
    },
    {
      "inputs": [
        {
          "internalType": "string",
          "name": "pub",
          "type": "string"
        },
        {
          "components": [
            {
              "internalType": "uint64",
              "name": "id",
              "type": "uint64"
            },
            {
              "internalType": "string",
              "name": "selectorPath",
              "type": "string"
            },
            {
              "internalType": "string",
              "name": "cid",
              "type": "string"
            }
          ],
          "internalType": "struct BasinStorage.DealInfo[]",
          "name": "deals",
          "type": "tuple[]"
        }
      ],
      "name": "addDeals",
      "outputs": [],
      "stateMutability": "nonpayable",
      "type": "function"
    },
    {
      "inputs": [
        {
          "internalType": "address",
          "name": "owner",
          "type": "address"
        },
        {
          "internalType": "string",
          "name": "pub",
          "type": "string"
        }
      ],
      "name": "createPub",
      "outputs": [],
      "stateMutability": "nonpayable",
      "type": "function"
    },
    {
      "inputs": [
        {
          "internalType": "uint64",
          "name": "dealID",
          "type": "uint64"
        }
      ],
      "name": "dealActivation",
      "outputs": [
        {
          "internalType": "int64",
          "name": "",
          "type": "int64"
        },
        {
          "internalType": "int64",
          "name": "",
          "type": "int64"
        }
      ],
      "stateMutability": "view",
      "type": "function"
    },
    {
      "inputs": [
        {
          "internalType": "uint64",
          "name": "dealID",
          "type": "uint64"
        }
      ],
      "name": "dealClient",
      "outputs": [
        {
          "internalType": "uint64",
          "name": "",
          "type": "uint64"
        }
      ],
      "stateMutability": "view",
      "type": "function"
    },
    {
      "inputs": [
        {
          "internalType": "uint64",
          "name": "dealID",
          "type": "uint64"
        }
      ],
      "name": "dealClientCollateral",
      "outputs": [
        {
          "components": [
            {
              "internalType": "bytes",
              "name": "val",
              "type": "bytes"
            },
            {
              "internalType": "bool",
              "name": "neg",
              "type": "bool"
            }
          ],
          "internalType": "struct CommonTypes.BigInt",
          "name": "",
          "type": "tuple"
        }
      ],
      "stateMutability": "view",
      "type": "function"
    },
    {
      "inputs": [
        {
          "internalType": "uint64",
          "name": "dealID",
          "type": "uint64"
        }
      ],
      "name": "dealLabel",
      "outputs": [
        {
          "internalType": "bytes",
          "name": "",
          "type": "bytes"
        },
        {
          "internalType": "bool",
          "name": "",
          "type": "bool"
        }
      ],
      "stateMutability": "view",
      "type": "function"
    },
    {
      "inputs": [
        {
          "internalType": "uint64",
          "name": "dealID",
          "type": "uint64"
        }
      ],
      "name": "dealProvider",
      "outputs": [
        {
          "internalType": "uint64",
          "name": "",
          "type": "uint64"
        }
      ],
      "stateMutability": "view",
      "type": "function"
    },
    {
      "inputs": [
        {
          "internalType": "uint64",
          "name": "dealID",
          "type": "uint64"
        }
      ],
      "name": "dealProviderCollateral",
      "outputs": [
        {
          "components": [
            {
              "internalType": "bytes",
              "name": "val",
              "type": "bytes"
            },
            {
              "internalType": "bool",
              "name": "neg",
              "type": "bool"
            }
          ],
          "internalType": "struct CommonTypes.BigInt",
          "name": "",
          "type": "tuple"
        }
      ],
      "stateMutability": "view",
      "type": "function"
    },
    {
      "inputs": [
        {
          "internalType": "uint64",
          "name": "dealID",
          "type": "uint64"
        }
      ],
      "name": "dealTerm",
      "outputs": [
        {
          "internalType": "int64",
          "name": "",
          "type": "int64"
        },
        {
          "internalType": "int64",
          "name": "",
          "type": "int64"
        }
      ],
      "stateMutability": "view",
      "type": "function"
    },
    {
      "inputs": [
        {
          "internalType": "uint64",
          "name": "dealID",
          "type": "uint64"
        }
      ],
      "name": "dealTotalPrice",
      "outputs": [
        {
          "components": [
            {
              "internalType": "bytes",
              "name": "val",
              "type": "bytes"
            },
            {
              "internalType": "bool",
              "name": "neg",
              "type": "bool"
            }
          ],
          "internalType": "struct CommonTypes.BigInt",
          "name": "",
          "type": "tuple"
        }
      ],
      "stateMutability": "view",
      "type": "function"
    },
    {
      "inputs": [
        {
          "internalType": "uint64",
          "name": "dealID",
          "type": "uint64"
        }
      ],
      "name": "dealVerified",
      "outputs": [
        {
          "internalType": "bool",
          "name": "",
          "type": "bool"
        }
      ],
      "stateMutability": "view",
      "type": "function"
    },
    {
      "inputs": [
        {
          "internalType": "bytes32",
          "name": "role",
          "type": "bytes32"
        }
      ],
      "name": "getRoleAdmin",
      "outputs": [
        {
          "internalType": "bytes32",
          "name": "",
          "type": "bytes32"
        }
      ],
      "stateMutability": "view",
      "type": "function"
    },
    {
      "inputs": [
        {
          "internalType": "bytes32",
          "name": "role",
          "type": "bytes32"
        },
        {
          "internalType": "address",
          "name": "account",
          "type": "address"
        }
      ],
      "name": "grantRole",
      "outputs": [],
      "stateMutability": "nonpayable",
      "type": "function"
    },
    {
      "inputs": [
        {
          "internalType": "bytes32",
          "name": "role",
          "type": "bytes32"
        },
        {
          "internalType": "address",
          "name": "account",
          "type": "address"
        }
      ],
      "name": "hasRole",
      "outputs": [
        {
          "internalType": "bool",
          "name": "",
          "type": "bool"
        }
      ],
      "stateMutability": "view",
      "type": "function"
    },
    {
      "inputs": [
        {
          "internalType": "string",
          "name": "pub",
          "type": "string"
        },
        {
          "internalType": "uint256",
          "name": "n",
          "type": "uint256"
        }
      ],
      "name": "latestNDeals",
      "outputs": [
        {
          "components": [
            {
              "internalType": "uint64",
              "name": "id",
              "type": "uint64"
            },
            {
              "internalType": "string",
              "name": "selectorPath",
              "type": "string"
            },
            {
              "internalType": "string",
              "name": "cid",
              "type": "string"
            }
          ],
          "internalType": "struct BasinStorage.DealInfo[]",
          "name": "",
          "type": "tuple[]"
        }
      ],
      "stateMutability": "view",
      "type": "function"
    },
    {
      "inputs": [
        {
          "internalType": "string",
          "name": "pub",
          "type": "string"
        },
        {
          "internalType": "uint256",
          "name": "offset",
          "type": "uint256"
        },
        {
          "internalType": "uint256",
          "name": "limit",
          "type": "uint256"
        }
      ],
      "name": "paginatedDeals",
      "outputs": [
        {
          "components": [
            {
              "internalType": "uint64",
              "name": "id",
              "type": "uint64"
            },
            {
              "internalType": "string",
              "name": "selectorPath",
              "type": "string"
            },
            {
              "internalType": "string",
              "name": "cid",
              "type": "string"
            }
          ],
          "internalType": "struct BasinStorage.DealInfo[]",
          "name": "",
          "type": "tuple[]"
        }
      ],
      "stateMutability": "view",
      "type": "function"
    },
    {
      "inputs": [
        {
          "internalType": "address",
          "name": "owner",
          "type": "address"
        }
      ],
      "name": "pubsOfOwner",
      "outputs": [
        {
          "internalType": "string[]",
          "name": "",
          "type": "string[]"
        }
      ],
      "stateMutability": "view",
      "type": "function"
    },
    {
      "inputs": [
        {
          "internalType": "bytes32",
          "name": "role",
          "type": "bytes32"
        },
        {
          "internalType": "address",
          "name": "account",
          "type": "address"
        }
      ],
      "name": "renounceRole",
      "outputs": [],
      "stateMutability": "nonpayable",
      "type": "function"
    },
    {
      "inputs": [
        {
          "internalType": "bytes32",
          "name": "role",
          "type": "bytes32"
        },
        {
          "internalType": "address",
          "name": "account",
          "type": "address"
        }
      ],
      "name": "revokeRole",
      "outputs": [],
      "stateMutability": "nonpayable",
      "type": "function"
    },
    {
      "inputs": [
        {
          "internalType": "bytes4",
          "name": "interfaceId",
          "type": "bytes4"
        }
      ],
      "name": "supportsInterface",
      "outputs": [
        {
          "internalType": "bool",
          "name": "",
          "type": "bool"
        }
      ],
      "stateMutability": "view",
      "type": "function"
    }
  ],
  "bytecode": {
    "object": "0x60806040523480156200001157600080fd5b506200001f60003362000025565b620000c6565b6000828152602081815260408083206001600160a01b038516845290915290205460ff16620000c2576000828152602081815260408083206001600160a01b03851684529091529020805460ff19166001179055620000813390565b6001600160a01b0316816001600160a01b0316837f2f8788117e7eff1d82e926ec794901d17c78024a50270940304540a733656f0d60405160405180910390a45b5050565b612f7380620000d66000396000f3fe608060405234801561001057600080fd5b50600436106101425760003560e01c8063570892c8116100b857806389ec0b931161007c57806389ec0b931461032757806391d148541461033a5780639f29370b1461034d578063a217fddf14610360578063d06f680214610368578063d547741f1461037b57600080fd5b8063570892c81461028d57806359b64c5d146102a05780636f0a43c7146102c0578063822ba40b146102d357806387a41b81146102fa57600080fd5b80632f2ff15d1161010a5780632f2ff15d1461020c57806336568abe146102215780633c7e5999146102345780633ff421e914610254578063484d5a3a1461026757806352b62b3e1461027a57600080fd5b806301ffc9a71461014757806306a09dea1461016f578063121e620e1461019a578063248a9ca3146101bb57806326294a77146101ec575b600080fd5b61015a610155366004612449565b61038e565b60405190151581526020015b60405180910390f35b61018261017d366004612488565b6103c5565b6040516001600160401b039091168152602001610166565b6101ad6101a8366004612488565b6103d0565b6040516101669291906124f5565b6101de6101c9366004612519565b60009081526020819052604090206001015490565b604051908152602001610166565b6101ff6101fa36600461254e565b6103f1565b6040516101669190612569565b61021f61021a3660046125cb565b6104e0565b005b61021f61022f3660046125cb565b61050a565b610247610242366004612488565b61058d565b60405161016691906125f7565b61015a610262366004612488565b6105ab565b610247610275366004612488565b6105b6565b61021f61028836600461266c565b6105d4565b61021f61029b3660046126be565b61070d565b6102b36102ae366004612757565b610927565b60405161016691906127a7565b6102b36102ce366004612841565b610975565b6101de7fafda658ee731b8f86292e3b52a311534cd93642b12a698012439316e0c3a099581565b61030d610308366004612488565b6109c2565b60408051600793840b81529190920b602082015201610166565b610247610335366004612488565b6109d0565b61015a6103483660046125cb565b6109ee565b61030d61035b366004612488565b610a17565b6101de600081565b610182610376366004612488565b610a25565b61021f6103893660046125cb565b610a30565b60006001600160e01b03198216637965db0b60e01b14806103bf57506301ffc9a760e01b6001600160e01b03198316145b92915050565b60006103bf82610a55565b60606000806103de84610a93565b8051602090910151909590945092505050565b6001600160a01b0381166000908152600260209081526040808320805482518185028101850190935280835260609492939192909184015b828210156104d55783829060005260206000200180546104489061288c565b80601f01602080910402602001604051908101604052809291908181526020018280546104749061288c565b80156104c15780601f10610496576101008083540402835291602001916104c1565b820191906000526020600020905b8154815290600101906020018083116104a457829003601f168201915b505050505081526020019060010190610429565b505050509050919050565b6000828152602081905260409020600101546104fb81610add565b6105058383610aea565b505050565b6001600160a01b038116331461057f5760405162461bcd60e51b815260206004820152602f60248201527f416363657373436f6e74726f6c3a2063616e206f6e6c792072656e6f756e636560448201526e103937b632b9903337b91039b2b63360891b60648201526084015b60405180910390fd5b6105898282610b6e565b5050565b6040805180820190915260608152600060208201526103bf82610bd3565b60006103bf82610c1d565b6040805180820190915260608152600060208201526103bf82610c53565b7fafda658ee731b8f86292e3b52a311534cd93642b12a698012439316e0c3a09956105fe81610add565b60006001600160a01b03166001848460405161061b9291906128c6565b908152604051908190036020019020546001600160a01b031614610656578282604051635c78f6ed60e11b81526004016105769291906128d6565b83600184846040516106699291906128c6565b908152604080516020928190038301902080546001600160a01b0319166001600160a01b0394851617905591861660009081526002825291822080546001810182559083529120016106bc838583612969565b50836001600160a01b031683836040516106d79291906128c6565b604051908190038120907ff8debc2f1745eba86909890f2dc061624705c74329348829e04aba43c015b9a290600090a350505050565b7fafda658ee731b8f86292e3b52a311534cd93642b12a698012439316e0c3a099561073781610add565b60004390506000600187876040516107509291906128c6565b908152604051908190036020019020546001600160a01b031690508061078d5786866040516315e6e0eb60e21b81526004016105769291906128d6565b60005b8481101561091d57600488886040516107aa9291906128c6565b908152602001604051809103902060008481526020019081526020016000208686838181106107db576107db612a29565b90506020028101906107ed9190612a3f565b81546001810183556000928352602090922090916003020161080f8282612aa5565b5050600388886040516108239291906128c6565b908152604051908190036020019020805490600061084083612bc6565b9190505550816001600160a01b0316888860405161085f9291906128c6565b604051809103902087878481811061087957610879612a29565b905060200281019061088b9190612a3f565b610899906020810190612488565b6001600160401b03167f79b38737a53f0bc22e34837355a5c9d1bfcddf817cb0022f82fe938b0588bf3f8989868181106108d5576108d5612a29565b90506020028101906108e79190612a3f565b6108f5906040810190612a5f565b6040516109039291906128d6565b60405180910390a48061091581612bc6565b915050610790565b5050505050505050565b606060006003868660405161093d9291906128c6565b908152602001604051809103902054905080831161095b578261095d565b805b925061096b86868686610c92565b9695505050505050565b606060006003858560405161098b9291906128c6565b90815260200160405180910390205490508083116109a957826109ab565b805b92506109b985854386610c92565b95945050505050565b60008060006103de84610f6c565b6040805180820190915260608152600060208201526103bf82610fb5565b6000918252602082815260408084206001600160a01b0393909316845291905290205460ff1690565b60008060006103de84610ff4565b60006103bf82611032565b600082815260208190526040902060010154610a4b81610add565b6105058383610b6e565b600080610a6a836001600160401b031661105d565b90506000610a8060056307a1f051605185611095565b9050610a8b816110ba565b949350505050565b6040805180820190915260608152600060208201526000610abc836001600160401b031661105d565b90506000610ad260056302c37386605185611095565b9050610a8b816110d1565b610ae78133611108565b50565b610af482826109ee565b610589576000828152602081815260408083206001600160a01b03851684529091529020805460ff19166001179055610b2a3390565b6001600160a01b0316816001600160a01b0316837f2f8788117e7eff1d82e926ec794901d17c78024a50270940304540a733656f0d60405160405180910390a45050565b610b7882826109ee565b15610589576000828152602081815260408083206001600160a01b0385168085529252808320805460ff1916905551339285917ff6391f5c32d9c69d2a47ea670b442974b53935d1edc7fd64eb21e047a839171b9190a45050565b6040805180820190915260608152600060208201526000610bfc836001600160401b031661105d565b90506000610c12600563b2059c49605185611095565b9050610a8b81611161565b600080610c32836001600160401b031661105d565b90506000610c486005639c9ac819605185611095565b9050610a8b816111c5565b6040805180820190915260608152600060208201526000610c7c836001600160401b031661105d565b90506000610c12600563ff88e83c605185611095565b6060600080836001600160401b03811115610caf57610caf612905565b604051908082528060200260200182016040528015610d0d57816020015b610cfa604051806060016040528060006001600160401b0316815260200160608152602001606081525090565b815260200190600190039081610ccd5790505b509050845b84831015610f5f57600060048989604051610d2e9291906128c6565b9081526040805191829003602090810183206000868152908252828120805480840286018401909452838552929184015b82821015610ecb57600084815260209081902060408051606081019091526003850290910180546001600160401b031682526001810180549293919291840191610da89061288c565b80601f0160208091040260200160405190810160405280929190818152602001828054610dd49061288c565b8015610e215780601f10610df657610100808354040283529160200191610e21565b820191906000526020600020905b815481529060010190602001808311610e0457829003601f168201915b50505050508152602001600282018054610e3a9061288c565b80601f0160208091040260200160405190810160405280929190818152602001828054610e669061288c565b8015610eb35780601f10610e8857610100808354040283529160200191610eb3565b820191906000526020600020905b815481529060010190602001808311610e9657829003601f168201915b50505050508152505081526020019060010190610d5f565b50505050905060005b8151811015610f3d5786851015610f3d57818181518110610ef757610ef7612a29565b6020026020010151848681518110610f1157610f11612a29565b60200260200101819052508480610f2790612bc6565b9550508080610f3590612bc6565b915050610ed4565b5081600003610f4c5750610f5f565b81610f5681612bdf565b92505050610d12565b5090815295945050505050565b60408051808201909152600080825260208201526000610f94836001600160401b031661105d565b90506000610faa60056309c30b20605185611095565b9050610a8b816111d3565b6040805180820190915260608152600060208201526000610fde836001600160401b031661105d565b90506000610c126005630bf46c57605185611095565b6040805180820190915260008082526020820152600061101c836001600160401b031661105d565b90506000610faa6005639904f2ff605185611095565b600080611047836001600160401b031661105d565b90506000610a8060056337bc36da605185611095565b60606000611073836001600160401b0316611237565b9050600061108082611285565b905061108c81856112a6565b610a8b816112b2565b60606112fd806110af878787876000600163ffffffff8816565b979650505050505050565b600080806110c884826113d7565b50949350505050565b6040805180820190915260608152600060208201526040805180820190915260608152600060208201819052906110c88483611464565b61111282826109ee565b6105895761111f81611612565b61112a836020611624565b60405160200161113b929190612bf6565b60408051601f198184030181529082905262461bcd60e51b825261057691600401612c6b565b60408051808201909152606080825260006020830181905283511561119f5761118a84826117c6565b815191935091501561119f57610a8b8261196b565b505060408051600081830181815260608301909352918152602081019190915292915050565b600080806110c88482611ac7565b60408051808201909152600080825260208201526000806111f48482611b62565b925090506002811461120857611208612c7e565b6112128483611bd5565b60079190910b845291506112268483611bd5565b5060070b6020840152509092915050565b60006017821161124957506001919050565b60ff821161125957506002919050565b61ffff821161126a57506003919050565b63ffffffff821161127d57506005919050565b506009919050565b61128d612414565b80516112999083611bef565b5060006020820152919050565b61058982600083611c66565b606081602001516000146112f75760405162461bcd60e51b815260206004820152600c60248201526b24b73b30b634b21021a127a960a11b6044820152606401610576565b50515190565b60606113106005607f60991b0184611d85565b6000806005607f60991b0188868661132957600061132c565b60015b8a8a8e60405160200161134496959493929190612c94565b60408051601f198184030181529082905261135e91612ce3565b600060405180830381855af49150503d8060008114611399576040519150601f19603f3d011682016040523d82523d6000602084013e61139e565b606091505b5091509150816113c157604051638a7db5bf60e01b815260040160405180910390fd5b6113ca81611dd3565b9998505050505050505050565b6000806000806113e78686611eb6565b96509092506001600160401b0316905060ff8216156114565760405162461bcd60e51b815260206004820152602560248201527f696e76616c6964206d616a20286578706563746564204d616a556e7369676e6560448201526464496e742960d81b6064820152608401610576565b9250839150505b9250929050565b60408051808201909152606081526000602082015260008060006114888686611eb6565b96509092506001600160401b0316905060ff8216600214806114ad575060ff82166003145b6115175760405162461bcd60e51b815260206004820152603560248201527f696e76616c6964206d616a20286578706563746564204d616a42797465537472604482015274696e67206f72204d616a54657874537472696e672960581b6064820152608401610576565b60006115238287612cf5565b90506000826001600160401b0381111561153f5761153f612905565b6040519080825280601f01601f191660200182016040528015611569576020820181803683370190505b5090506000875b838110156115de5789818151811061158a5761158a612a29565b602001015160f81c60f81b8383815181106115a7576115a7612a29565b60200101906001600160f81b031916908160001a905350816115c881612bc6565b92505080806115d690612bc6565b915050611570565b506040805180820190915282815260ff86166003146020820152611602858a612cf5565b9650965050505050509250929050565b60606103bf6001600160a01b03831660145b60606000611633836002612d08565b61163e906002612cf5565b6001600160401b0381111561165557611655612905565b6040519080825280601f01601f19166020018201604052801561167f576020820181803683370190505b509050600360fc1b8160008151811061169a5761169a612a29565b60200101906001600160f81b031916908160001a905350600f60fb1b816001815181106116c9576116c9612a29565b60200101906001600160f81b031916908160001a90535060006116ed846002612d08565b6116f8906001612cf5565b90505b6001811115611770576f181899199a1a9b1b9c1cb0b131b232b360811b85600f166010811061172c5761172c612a29565b1a60f81b82828151811061174257611742612a29565b60200101906001600160f81b031916908160001a90535060049490941c9361176981612bdf565b90506116fb565b5083156117bf5760405162461bcd60e51b815260206004820181905260248201527f537472696e67733a20686578206c656e67746820696e73756666696369656e746044820152606401610576565b9392505050565b606060008060006117d78686611eb6565b96509092506001600160401b0316905060ff8216600614806117fc575060ff82166002145b61185f5760405162461bcd60e51b815260206004820152602e60248201527f696e76616c6964206d616a20286578706563746564204d616a546167206f722060448201526d4d616a42797465537472696e672960901b6064820152608401610576565b60051960ff831601611898576118758686611eb6565b96509092506001600160401b0316905060ff821660021461189857611898612c7e565b60006118a48287612cf5565b90506000826001600160401b038111156118c0576118c0612905565b6040519080825280601f01601f1916602001820160405280156118ea576020820181803683370190505b5090506000875b8381101561195f5789818151811061190b5761190b612a29565b602001015160f81c60f81b83838151811061192857611928612a29565b60200101906001600160f81b031916908160001a9053508161194981612bc6565b925050808061195790612bc6565b9150506118f1565b5081611602858a612cf5565b60408051808201909152606081526000602082015281516000036119b4575050604080516080810182526001918101918252600060608201819052918152602081019190915290565b6000600183516119c49190612d1f565b6001600160401b038111156119db576119db612905565b6040519080825280601f01601f191660200182016040528015611a05576020820181803683370190505b509050600083600081518110611a1d57611a1d612a29565b01602001516001600160f81b031916600160f81b03611a3a575060015b60015b8451811015611aac57848181518110611a5857611a58612a29565b01602001516001600160f81b03191683611a73600184612d1f565b81518110611a8357611a83612a29565b60200101906001600160f81b031916908160001a90535080611aa481612bc6565b915050611a3d565b50604080518082019091529182521515602082015292915050565b600080600080611ad78686611eb6565b96509092506001600160401b0316905060ff8216600714611b3a5760405162461bcd60e51b815260206004820152601f60248201527f696e76616c6964206d616a20286578706563746564204d616a4f7468657229006044820152606401610576565b6015811480611b495750601481145b611b5557611b55612c7e565b6014141595939450505050565b600080600080611b728686611eb6565b96509092506001600160401b0316905060ff82166004146114565760405162461bcd60e51b815260206004820152601f60248201527f696e76616c6964206d616a20286578706563746564204d616a417272617929006044820152606401610576565b60008080611be38585612090565b90969095509350505050565b604080518082019091526060815260006020820152611c0f602083612d32565b15611c3757611c1f602083612d32565b611c2a906020612d1f565b611c349083612cf5565b91505b602080840183905260405180855260008152908184010181811015611c5b57600080fd5b604052509192915050565b6017816001600160401b031611611c92578251611c8c9060e0600585901b16831761212d565b50505050565b60ff816001600160401b031611611cd2578251611cba906018611fe0600586901b161761212d565b508251611c8c906001600160401b0383166001612196565b61ffff816001600160401b031611611d13578251611cfb906019611fe0600586901b161761212d565b508251611c8c906001600160401b0383166002612196565b63ffffffff816001600160401b031611611d56578251611d3e90601a611fe0600586901b161761212d565b508251611c8c906001600160401b0383166004612196565b8251611d6d90601b611fe0600586901b161761212d565b508251611c8c906001600160401b0383166008612196565b4781811015611db157604051634787a10360e11b81526004810182905260248101839052604401610576565b823f151580611c8c5760405163064d954b60e41b815260040160405180910390fd5b6060600080600084806020019051810190611dee9190612d54565b919450925090506001600160401b038216611e2857805115611e2357604051630e74990760e01b815260040160405180910390fd5b611e94565b6001600160401b03821660511480611e4957506001600160401b0382166071145b15611e70578051600003611e2357604051630e74990760e01b815260040160405180910390fd5b60405163f1f6bced60e01b81526001600160401b0383166004820152602401610576565b8215610a8b5760405163d4bb667160e01b815260048101849052602401610576565b600080600080611ec6868661221b565b9050611ed3600186612cf5565b94506007600582901c16601f8216601c8110611f3f5760405162461bcd60e51b815260206004820152602560248201527f63616e6e6f742068616e646c6520686561646572732077697468206578747261604482015264203e20323760d81b6064820152608401610576565b60188160ff161015611f5d5790945060ff1692508491506120899050565b8060ff16601803611fd9576000611f74898961221b565b9050611f81600189612cf5565b975060188160ff161015611fc65760405162461bcd60e51b815260206004820152600c60248201526b34b73b30b634b21031b137b960a11b6044820152606401610576565b9195505060ff1692508491506120899050565b8060ff16601903612013576000611ff0898961226a565b9050611ffd600289612cf5565b97509195505061ffff1692508491506120899050565b8060ff16601a0361204f57600061202a89896122a3565b9050612037600489612cf5565b97509195505063ffffffff1692508491506120899050565b8060ff16601b1461206257612062612c7e565b600061206e89896122dc565b905061207b600889612cf5565b975091955090935085925050505b9250925092565b6000806000806120a08686611eb6565b96509092506001600160401b0316905060ff8216600114806120c3575060ff8216155b6114565760405162461bcd60e51b815260206004820152603560248201527f696e76616c6964206d616a20286578706563746564204d616a5369676e6564496044820152746e74206f72204d616a556e7369676e6564496e742960581b6064820152608401610576565b6040805180820190915260608152600060208201528251516000612152826001612cf5565b905084602001518210612173576121738561216e836002612d08565b612315565b845160208382010185815350805182111561218c578181525b5093949350505050565b60408051808201909152606081526000602082015283515160006121ba8285612cf5565b905085602001518111156121d7576121d78661216e836002612d08565b600060016121e786610100612f03565b6121f19190612d1f565b9050865182810187831982511617815250805183111561220f578281525b50959695505050505050565b6000612228826001612cf5565b835110156122485760405162461bcd60e51b815260040161057690612f0f565b82828151811061225a5761225a612a29565b016020015160f81c905092915050565b6000612277826002612cf5565b835110156122975760405162461bcd60e51b815260040161057690612f0f565b50016020015160f01c90565b60006122b0826004612cf5565b835110156122d05760405162461bcd60e51b815260040161057690612f0f565b50016020015160e01c90565b60006122e9826008612cf5565b835110156123095760405162461bcd60e51b815260040161057690612f0f565b50016020015160c01c90565b81516123218383611bef565b50611c8c83826040805180820190915260608152600060208201526117bf83838451604080518082019091526060815260006020820152825182111561236657600080fd5b83515160006123758483612cf5565b90508560200151811115612392576123928661216e836002612d08565b8551805183820160200191600091808511156123ac578482525b505050602086015b602086106123ec57805182526123cb602083612cf5565b91506123d8602082612cf5565b90506123e5602087612d1f565b95506123b4565b51815160001960208890036101000a0190811690199190911617905250849150509392505050565b604051806040016040528061243c604051806040016040528060608152602001600081525090565b8152602001600081525090565b60006020828403121561245b57600080fd5b81356001600160e01b0319811681146117bf57600080fd5b6001600160401b0381168114610ae757600080fd5b60006020828403121561249a57600080fd5b81356117bf81612473565b60005b838110156124c05781810151838201526020016124a8565b50506000910152565b600081518084526124e18160208601602086016124a5565b601f01601f19169290920160200192915050565b60408152600061250860408301856124c9565b905082151560208301529392505050565b60006020828403121561252b57600080fd5b5035919050565b80356001600160a01b038116811461254957600080fd5b919050565b60006020828403121561256057600080fd5b6117bf82612532565b6000602080830181845280855180835260408601915060408160051b870101925083870160005b828110156125be57603f198886030184526125ac8583516124c9565b94509285019290850190600101612590565b5092979650505050505050565b600080604083850312156125de57600080fd5b823591506125ee60208401612532565b90509250929050565b60208152600082516040602084015261261360608401826124c9565b90506020840151151560408401528091505092915050565b60008083601f84011261263d57600080fd5b5081356001600160401b0381111561265457600080fd5b60208301915083602082850101111561145d57600080fd5b60008060006040848603121561268157600080fd5b61268a84612532565b925060208401356001600160401b038111156126a557600080fd5b6126b18682870161262b565b9497909650939450505050565b600080600080604085870312156126d457600080fd5b84356001600160401b03808211156126eb57600080fd5b6126f78883890161262b565b9096509450602087013591508082111561271057600080fd5b818701915087601f83011261272457600080fd5b81358181111561273357600080fd5b8860208260051b850101111561274857600080fd5b95989497505060200194505050565b6000806000806060858703121561276d57600080fd5b84356001600160401b0381111561278357600080fd5b61278f8782880161262b565b90989097506020870135966040013595509350505050565b60006020808301818452808551808352604092508286019150828160051b87010184880160005b8381101561283357603f19898403018552815160606001600160401b03825116855288820151818a870152612805828701826124c9565b9150508782015191508481038886015261281f81836124c9565b9689019694505050908601906001016127ce565b509098975050505050505050565b60008060006040848603121561285657600080fd5b83356001600160401b0381111561286c57600080fd5b6128788682870161262b565b909790965060209590950135949350505050565b600181811c908216806128a057607f821691505b6020821081036128c057634e487b7160e01b600052602260045260246000fd5b50919050565b8183823760009101908152919050565b60208152816020820152818360408301376000818301604090810191909152601f909201601f19160101919050565b634e487b7160e01b600052604160045260246000fd5b601f82111561050557600081815260208120601f850160051c810160208610156129425750805b601f850160051c820191505b818110156129615782815560010161294e565b505050505050565b6001600160401b0383111561298057612980612905565b6129948361298e835461288c565b8361291b565b6000601f8411600181146129c857600085156129b05750838201355b600019600387901b1c1916600186901b178355612a22565b600083815260209020601f19861690835b828110156129f957868501358255602094850194600190920191016129d9565b5086821015612a165760001960f88860031b161c19848701351681555b505060018560011b0183555b5050505050565b634e487b7160e01b600052603260045260246000fd5b60008235605e19833603018112612a5557600080fd5b9190910192915050565b6000808335601e19843603018112612a7657600080fd5b8301803591506001600160401b03821115612a9057600080fd5b60200191503681900382131561145d57600080fd5b8135612ab081612473565b815467ffffffffffffffff19166001600160401b039182161782556001908183016020612adf86820187612a5f565b84811115612aef57612aef612905565b612b0381612afd865461288c565b8661291b565b60009450601f811160018114612b395760008215612b215750828601355b600019600384901b1c1916600183901b178555612b8e565b600085815260209020601f19831690875b82811015612b675785890135825597860197908901908601612b4a565b5083821015612b845760001960f88560031b161c19888601351681555b50508682881b0185555b50505050505050612ba26040830183612a5f565b611c8c818360028601612969565b634e487b7160e01b600052601160045260246000fd5b600060018201612bd857612bd8612bb0565b5060010190565b600081612bee57612bee612bb0565b506000190190565b7f416363657373436f6e74726f6c3a206163636f756e7420000000000000000000815260008351612c2e8160178501602088016124a5565b7001034b99036b4b9b9b4b733903937b6329607d1b6017918401918201528351612c5f8160288401602088016124a5565b01602801949350505050565b6020815260006117bf60208301846124c9565b634e487b7160e01b600052600160045260246000fd5b60006001600160401b0380891683528760208401528087166040840152808616606084015260c06080840152612ccd60c08401866124c9565b915080841660a084015250979650505050505050565b60008251612a558184602087016124a5565b808201808211156103bf576103bf612bb0565b80820281158282048414176103bf576103bf612bb0565b818103818111156103bf576103bf612bb0565b600082612d4f57634e487b7160e01b600052601260045260246000fd5b500690565b600080600060608486031215612d6957600080fd5b835192506020840151612d7b81612473565b60408501519092506001600160401b0380821115612d9857600080fd5b818601915086601f830112612dac57600080fd5b815181811115612dbe57612dbe612905565b604051601f8201601f19908116603f01168101908382118183101715612de657612de6612905565b81604052828152896020848701011115612dff57600080fd5b612e108360208301602088016124a5565b80955050505050509250925092565b600181815b80851115612e5a578160001904821115612e4057612e40612bb0565b80851615612e4d57918102915b93841c9390800290612e24565b509250929050565b600082612e71575060016103bf565b81612e7e575060006103bf565b8160018114612e945760028114612e9e57612eba565b60019150506103bf565b60ff841115612eaf57612eaf612bb0565b50506001821b6103bf565b5060208310610133831016604e8410600b8410161715612edd575081810a6103bf565b612ee78383612e1f565b8060001904821115612efb57612efb612bb0565b029392505050565b60006117bf8383612e62565b602080825260149082015273736c6963696e67206f7574206f662072616e676560601b60408201526060019056fea2646970667358221220600e6b173e10eace0d8ff923eb61f75f1b0b2f23000e0d1234a0129085edef1864736f6c63430008150033",
    "linkReferences": {}
  },
  "methodIdentifiers": {
    "DEFAULT_ADMIN_ROLE()": "a217fddf",
    "PUB_ADMIN_ROLE()": "822ba40b",
    "addDeals(string,(uint64,string,string)[])": "570892c8",
    "createPub(address,string)": "52b62b3e",
    "dealActivation(uint64)": "9f29370b",
    "dealClient(uint64)": "06a09dea",
    "dealClientCollateral(uint64)": "89ec0b93",
    "dealLabel(uint64)": "121e620e",
    "dealProvider(uint64)": "d06f6802",
    "dealProviderCollateral(uint64)": "3c7e5999",
    "dealTerm(uint64)": "87a41b81",
    "dealTotalPrice(uint64)": "484d5a3a",
    "dealVerified(uint64)": "3ff421e9",
    "getRoleAdmin(bytes32)": "248a9ca3",
    "grantRole(bytes32,address)": "2f2ff15d",
    "hasRole(bytes32,address)": "91d14854",
    "latestNDeals(string,uint256)": "6f0a43c7",
    "paginatedDeals(string,uint256,uint256)": "59b64c5d",
    "pubsOfOwner(address)": "26294a77",
    "renounceRole(bytes32,address)": "36568abe",
    "revokeRole(bytes32,address)": "d547741f",
    "supportsInterface(bytes4)": "01ffc9a7"
  },
  "id": 43
}